{
	"test/ValueContract.sol": {
		"ValueContract": {
			"abi": [
				{
					"inputs": [
						{
							"internalType": "uint256",
							"name": "_value",
							"type": "uint256"
						}
					],
					"name": "setValue",
					"outputs": [],
					"stateMutability": "nonpayable",
					"type": "function"
				},
				{
					"inputs": [],
					"name": "value",
					"outputs": [
						{
							"internalType": "uint256",
							"name": "",
							"type": "uint256"
						}
					],
					"stateMutability": "view",
					"type": "function"
				}
			],
			"devdoc": {
				"kind": "dev",
				"methods": {},
				"version": 1
			},
			"evm": {
				"assembly": "    /* \"test/ValueContract.sol\":223:384  contract ValueContract is ValueCheck{... */\n  mstore(0x40, 0x80)\n  callvalue\n  dup1\n  iszero\n  tag_1\n  jumpi\n  0x00\n  dup1\n  revert\ntag_1:\n  pop\n  dataSize(sub_0)\n  dup1\n  dataOffset(sub_0)\n  0x00\n  codecopy\n  0x00\n  return\nstop\n\nsub_0: assembly {\n        /* \"test/ValueContract.sol\":223:384  contract ValueContract is ValueCheck{... */\n      mstore(0x40, 0x80)\n      callvalue\n      dup1\n      iszero\n      tag_1\n      jumpi\n      0x00\n      dup1\n      revert\n    tag_1:\n      pop\n      jumpi(tag_2, lt(calldatasize, 0x04))\n      shr(0xe0, calldataload(0x00))\n      dup1\n      0x3fa4f245\n      eq\n      tag_3\n      jumpi\n      dup1\n      0x55241077\n      eq\n      tag_4\n      jumpi\n    tag_2:\n      0x00\n      dup1\n      revert\n        /* \"test/ValueContract.sol\":266:283  uint public value */\n    tag_3:\n      tag_5\n      tag_6\n      jump\t// in\n    tag_5:\n      mload(0x40)\n      tag_7\n      swap2\n      swap1\n      tag_8\n      jump\t// in\n    tag_7:\n      mload(0x40)\n      dup1\n      swap2\n      sub\n      swap1\n      return\n        /* \"test/ValueContract.sol\":292:381  function setValue(uint _value) public validValue(_value){... */\n    tag_4:\n      tag_9\n      0x04\n      dup1\n      calldatasize\n      sub\n      dup2\n      add\n      swap1\n      tag_10\n      swap2\n      swap1\n      tag_11\n      jump\t// in\n    tag_10:\n      tag_12\n      jump\t// in\n    tag_9:\n      stop\n        /* \"test/ValueContract.sol\":266:283  uint public value */\n    tag_6:\n      sload(0x00)\n      dup2\n      jump\t// out\n        /* \"test/ValueContract.sol\":292:381  function setValue(uint _value) public validValue(_value){... */\n    tag_12:\n        /* \"test/ValueContract.sol\":341:347  _value */\n      dup1\n        /* \"test/ValueContract.sol\":149:152  100 */\n      0x64\n        /* \"test/ValueContract.sol\":139:145  _value */\n      dup2\n        /* \"test/ValueContract.sol\":139:152  _value <= 100 */\n      gt\n      iszero\n        /* \"test/ValueContract.sol\":131:196  require(_value <= 100, \"value must be less than or equal to 100\") */\n      tag_14\n      jumpi\n      mload(0x40)\n      0x08c379a000000000000000000000000000000000000000000000000000000000\n      dup2\n      mstore\n      0x04\n      add\n      tag_15\n      swap1\n      tag_16\n      jump\t// in\n    tag_15:\n      mload(0x40)\n      dup1\n      swap2\n      sub\n      swap1\n      revert\n    tag_14:\n        /* \"test/ValueContract.sol\":367:373  _value */\n      dup2\n        /* \"test/ValueContract.sol\":359:364  value */\n      0x00\n        /* \"test/ValueContract.sol\":359:373  value = _value */\n      dup2\n      swap1\n      sstore\n      pop\n        /* \"test/ValueContract.sol\":292:381  function setValue(uint _value) public validValue(_value){... */\n      pop\n      pop\n      jump\t// out\n        /* \"#utility.yul\":7:84   */\n    tag_18:\n        /* \"#utility.yul\":44:51   */\n      0x00\n        /* \"#utility.yul\":73:78   */\n      dup2\n        /* \"#utility.yul\":62:78   */\n      swap1\n      pop\n        /* \"#utility.yul\":7:84   */\n      swap2\n      swap1\n      pop\n      jump\t// out\n        /* \"#utility.yul\":90:208   */\n    tag_19:\n        /* \"#utility.yul\":177:201   */\n      tag_31\n        /* \"#utility.yul\":195:200   */\n      dup2\n        /* \"#utility.yul\":177:201   */\n      tag_18\n      jump\t// in\n    tag_31:\n        /* \"#utility.yul\":172:175   */\n      dup3\n        /* \"#utility.yul\":165:202   */\n      mstore\n        /* \"#utility.yul\":90:208   */\n      pop\n      pop\n      jump\t// out\n        /* \"#utility.yul\":214:436   */\n    tag_8:\n        /* \"#utility.yul\":307:311   */\n      0x00\n        /* \"#utility.yul\":345:347   */\n      0x20\n        /* \"#utility.yul\":334:343   */\n      dup3\n        /* \"#utility.yul\":330:348   */\n      add\n        /* \"#utility.yul\":322:348   */\n      swap1\n      pop\n        /* \"#utility.yul\":358:429   */\n      tag_33\n        /* \"#utility.yul\":426:427   */\n      0x00\n        /* \"#utility.yul\":415:424   */\n      dup4\n        /* \"#utility.yul\":411:428   */\n      add\n        /* \"#utility.yul\":402:408   */\n      dup5\n        /* \"#utility.yul\":358:429   */\n      tag_19\n      jump\t// in\n    tag_33:\n        /* \"#utility.yul\":214:436   */\n      swap3\n      swap2\n      pop\n      pop\n      jump\t// out\n        /* \"#utility.yul\":523:640   */\n    tag_21:\n        /* \"#utility.yul\":632:633   */\n      0x00\n        /* \"#utility.yul\":629:630   */\n      dup1\n        /* \"#utility.yul\":622:634   */\n      revert\n        /* \"#utility.yul\":769:891   */\n    tag_23:\n        /* \"#utility.yul\":842:866   */\n      tag_38\n        /* \"#utility.yul\":860:865   */\n      dup2\n        /* \"#utility.yul\":842:866   */\n      tag_18\n      jump\t// in\n    tag_38:\n        /* \"#utility.yul\":835:840   */\n      dup2\n        /* \"#utility.yul\":832:867   */\n      eq\n        /* \"#utility.yul\":822:885   */\n      tag_39\n      jumpi\n        /* \"#utility.yul\":881:882   */\n      0x00\n        /* \"#utility.yul\":878:879   */\n      dup1\n        /* \"#utility.yul\":871:883   */\n      revert\n        /* \"#utility.yul\":822:885   */\n    tag_39:\n        /* \"#utility.yul\":769:891   */\n      pop\n      jump\t// out\n        /* \"#utility.yul\":897:1036   */\n    tag_24:\n        /* \"#utility.yul\":943:948   */\n      0x00\n        /* \"#utility.yul\":981:987   */\n      dup2\n        /* \"#utility.yul\":968:988   */\n      calldataload\n        /* \"#utility.yul\":959:988   */\n      swap1\n      pop\n        /* \"#utility.yul\":997:1030   */\n      tag_41\n        /* \"#utility.yul\":1024:1029   */\n      dup2\n        /* \"#utility.yul\":997:1030   */\n      tag_23\n      jump\t// in\n    tag_41:\n        /* \"#utility.yul\":897:1036   */\n      swap3\n      swap2\n      pop\n      pop\n      jump\t// out\n        /* \"#utility.yul\":1042:1371   */\n    tag_11:\n        /* \"#utility.yul\":1101:1107   */\n      0x00\n        /* \"#utility.yul\":1150:1152   */\n      0x20\n        /* \"#utility.yul\":1138:1147   */\n      dup3\n        /* \"#utility.yul\":1129:1136   */\n      dup5\n        /* \"#utility.yul\":1125:1148   */\n      sub\n        /* \"#utility.yul\":1121:1153   */\n      slt\n        /* \"#utility.yul\":1118:1237   */\n      iszero\n      tag_43\n      jumpi\n        /* \"#utility.yul\":1156:1235   */\n      tag_44\n      tag_21\n      jump\t// in\n    tag_44:\n        /* \"#utility.yul\":1118:1237   */\n    tag_43:\n        /* \"#utility.yul\":1276:1277   */\n      0x00\n        /* \"#utility.yul\":1301:1354   */\n      tag_45\n        /* \"#utility.yul\":1346:1353   */\n      dup5\n        /* \"#utility.yul\":1337:1343   */\n      dup3\n        /* \"#utility.yul\":1326:1335   */\n      dup6\n        /* \"#utility.yul\":1322:1344   */\n      add\n        /* \"#utility.yul\":1301:1354   */\n      tag_24\n      jump\t// in\n    tag_45:\n        /* \"#utility.yul\":1291:1354   */\n      swap2\n      pop\n        /* \"#utility.yul\":1247:1364   */\n      pop\n        /* \"#utility.yul\":1042:1371   */\n      swap3\n      swap2\n      pop\n      pop\n      jump\t// out\n        /* \"#utility.yul\":1377:1546   */\n    tag_25:\n        /* \"#utility.yul\":1461:1472   */\n      0x00\n        /* \"#utility.yul\":1495:1501   */\n      dup3\n        /* \"#utility.yul\":1490:1493   */\n      dup3\n        /* \"#utility.yul\":1483:1502   */\n      mstore\n        /* \"#utility.yul\":1535:1539   */\n      0x20\n        /* \"#utility.yul\":1530:1533   */\n      dup3\n        /* \"#utility.yul\":1526:1540   */\n      add\n        /* \"#utility.yul\":1511:1540   */\n      swap1\n      pop\n        /* \"#utility.yul\":1377:1546   */\n      swap3\n      swap2\n      pop\n      pop\n      jump\t// out\n        /* \"#utility.yul\":1552:1778   */\n    tag_26:\n        /* \"#utility.yul\":1692:1726   */\n      0x76616c7565206d757374206265206c657373207468616e206f7220657175616c\n        /* \"#utility.yul\":1688:1689   */\n      0x00\n        /* \"#utility.yul\":1680:1686   */\n      dup3\n        /* \"#utility.yul\":1676:1690   */\n      add\n        /* \"#utility.yul\":1669:1727   */\n      mstore\n        /* \"#utility.yul\":1761:1770   */\n      0x20746f2031303000000000000000000000000000000000000000000000000000\n        /* \"#utility.yul\":1756:1758   */\n      0x20\n        /* \"#utility.yul\":1748:1754   */\n      dup3\n        /* \"#utility.yul\":1744:1759   */\n      add\n        /* \"#utility.yul\":1737:1771   */\n      mstore\n        /* \"#utility.yul\":1552:1778   */\n      pop\n      jump\t// out\n        /* \"#utility.yul\":1784:2150   */\n    tag_27:\n        /* \"#utility.yul\":1926:1929   */\n      0x00\n        /* \"#utility.yul\":1947:2014   */\n      tag_49\n        /* \"#utility.yul\":2011:2013   */\n      0x27\n        /* \"#utility.yul\":2006:2009   */\n      dup4\n        /* \"#utility.yul\":1947:2014   */\n      tag_25\n      jump\t// in\n    tag_49:\n        /* \"#utility.yul\":1940:2014   */\n      swap2\n      pop\n        /* \"#utility.yul\":2023:2116   */\n      tag_50\n        /* \"#utility.yul\":2112:2115   */\n      dup3\n        /* \"#utility.yul\":2023:2116   */\n      tag_26\n      jump\t// in\n    tag_50:\n        /* \"#utility.yul\":2141:2143   */\n      0x40\n        /* \"#utility.yul\":2136:2139   */\n      dup3\n        /* \"#utility.yul\":2132:2144   */\n      add\n        /* \"#utility.yul\":2125:2144   */\n      swap1\n      pop\n        /* \"#utility.yul\":1784:2150   */\n      swap2\n      swap1\n      pop\n      jump\t// out\n        /* \"#utility.yul\":2156:2575   */\n    tag_16:\n        /* \"#utility.yul\":2322:2326   */\n      0x00\n        /* \"#utility.yul\":2360:2362   */\n      0x20\n        /* \"#utility.yul\":2349:2358   */\n      dup3\n        /* \"#utility.yul\":2345:2363   */\n      add\n        /* \"#utility.yul\":2337:2363   */\n      swap1\n      pop\n        /* \"#utility.yul\":2409:2418   */\n      dup2\n        /* \"#utility.yul\":2403:2407   */\n      dup2\n        /* \"#utility.yul\":2399:2419   */\n      sub\n        /* \"#utility.yul\":2395:2396   */\n      0x00\n        /* \"#utility.yul\":2384:2393   */\n      dup4\n        /* \"#utility.yul\":2380:2397   */\n      add\n        /* \"#utility.yul\":2373:2420   */\n      mstore\n        /* \"#utility.yul\":2437:2568   */\n      tag_52\n        /* \"#utility.yul\":2563:2567   */\n      dup2\n        /* \"#utility.yul\":2437:2568   */\n      tag_27\n      jump\t// in\n    tag_52:\n        /* \"#utility.yul\":2429:2568   */\n      swap1\n      pop\n        /* \"#utility.yul\":2156:2575   */\n      swap2\n      swap1\n      pop\n      jump\t// out\n\n    auxdata: 0xa2646970667358221220ea21a3d510967617e632a8b21276cdb08a057e5ae416f851d7b12d460612653d64736f6c634300081a0033\n}\n",
				"bytecode": {
					"linkReferences": {},
					"object": "6080604052348015600e575f80fd5b506102248061001c5f395ff3fe608060405234801561000f575f80fd5b5060043610610034575f3560e01c80633fa4f245146100385780635524107714610056575b5f80fd5b610040610072565b60405161004d91906100de565b60405180910390f35b610070600480360381019061006b9190610125565b610077565b005b5f5481565b8060648111156100bc576040517f08c379a00000000000000000000000000000000000000000000000000000000081526004016100b3906101d0565b60405180910390fd5b815f819055505050565b5f819050919050565b6100d8816100c6565b82525050565b5f6020820190506100f15f8301846100cf565b92915050565b5f80fd5b610104816100c6565b811461010e575f80fd5b50565b5f8135905061011f816100fb565b92915050565b5f6020828403121561013a576101396100f7565b5b5f61014784828501610111565b91505092915050565b5f82825260208201905092915050565b7f76616c7565206d757374206265206c657373207468616e206f7220657175616c5f8201527f20746f2031303000000000000000000000000000000000000000000000000000602082015250565b5f6101ba602783610150565b91506101c582610160565b604082019050919050565b5f6020820190508181035f8301526101e7816101ae565b905091905056fea2646970667358221220ea21a3d510967617e632a8b21276cdb08a057e5ae416f851d7b12d460612653d64736f6c634300081a0033",
					"opcodes": "PUSH1 0x80 PUSH1 0x40 MSTORE CALLVALUE DUP1 ISZERO PUSH1 0xE JUMPI PUSH0 DUP1 REVERT JUMPDEST POP PUSH2 0x224 DUP1 PUSH2 0x1C PUSH0 CODECOPY PUSH0 RETURN INVALID PUSH1 0x80 PUSH1 0x40 MSTORE CALLVALUE DUP1 ISZERO PUSH2 0xF JUMPI PUSH0 DUP1 REVERT JUMPDEST POP PUSH1 0x4 CALLDATASIZE LT PUSH2 0x34 JUMPI PUSH0 CALLDATALOAD PUSH1 0xE0 SHR DUP1 PUSH4 0x3FA4F245 EQ PUSH2 0x38 JUMPI DUP1 PUSH4 0x55241077 EQ PUSH2 0x56 JUMPI JUMPDEST PUSH0 DUP1 REVERT JUMPDEST PUSH2 0x40 PUSH2 0x72 JUMP JUMPDEST PUSH1 0x40 MLOAD PUSH2 0x4D SWAP2 SWAP1 PUSH2 0xDE JUMP JUMPDEST PUSH1 0x40 MLOAD DUP1 SWAP2 SUB SWAP1 RETURN JUMPDEST PUSH2 0x70 PUSH1 0x4 DUP1 CALLDATASIZE SUB DUP2 ADD SWAP1 PUSH2 0x6B SWAP2 SWAP1 PUSH2 0x125 JUMP JUMPDEST PUSH2 0x77 JUMP JUMPDEST STOP JUMPDEST PUSH0 SLOAD DUP2 JUMP JUMPDEST DUP1 PUSH1 0x64 DUP2 GT ISZERO PUSH2 0xBC JUMPI PUSH1 0x40 MLOAD PUSH32 0x8C379A000000000000000000000000000000000000000000000000000000000 DUP2 MSTORE PUSH1 0x4 ADD PUSH2 0xB3 SWAP1 PUSH2 0x1D0 JUMP JUMPDEST PUSH1 0x40 MLOAD DUP1 SWAP2 SUB SWAP1 REVERT JUMPDEST DUP2 PUSH0 DUP2 SWAP1 SSTORE POP POP POP JUMP JUMPDEST PUSH0 DUP2 SWAP1 POP SWAP2 SWAP1 POP JUMP JUMPDEST PUSH2 0xD8 DUP2 PUSH2 0xC6 JUMP JUMPDEST DUP3 MSTORE POP POP JUMP JUMPDEST PUSH0 PUSH1 0x20 DUP3 ADD SWAP1 POP PUSH2 0xF1 PUSH0 DUP4 ADD DUP5 PUSH2 0xCF JUMP JUMPDEST SWAP3 SWAP2 POP POP JUMP JUMPDEST PUSH0 DUP1 REVERT JUMPDEST PUSH2 0x104 DUP2 PUSH2 0xC6 JUMP JUMPDEST DUP2 EQ PUSH2 0x10E JUMPI PUSH0 DUP1 REVERT JUMPDEST POP JUMP JUMPDEST PUSH0 DUP2 CALLDATALOAD SWAP1 POP PUSH2 0x11F DUP2 PUSH2 0xFB JUMP JUMPDEST SWAP3 SWAP2 POP POP JUMP JUMPDEST PUSH0 PUSH1 0x20 DUP3 DUP5 SUB SLT ISZERO PUSH2 0x13A JUMPI PUSH2 0x139 PUSH2 0xF7 JUMP JUMPDEST JUMPDEST PUSH0 PUSH2 0x147 DUP5 DUP3 DUP6 ADD PUSH2 0x111 JUMP JUMPDEST SWAP2 POP POP SWAP3 SWAP2 POP POP JUMP JUMPDEST PUSH0 DUP3 DUP3 MSTORE PUSH1 0x20 DUP3 ADD SWAP1 POP SWAP3 SWAP2 POP POP JUMP JUMPDEST PUSH32 0x76616C7565206D757374206265206C657373207468616E206F7220657175616C PUSH0 DUP3 ADD MSTORE PUSH32 0x20746F2031303000000000000000000000000000000000000000000000000000 PUSH1 0x20 DUP3 ADD MSTORE POP JUMP JUMPDEST PUSH0 PUSH2 0x1BA PUSH1 0x27 DUP4 PUSH2 0x150 JUMP JUMPDEST SWAP2 POP PUSH2 0x1C5 DUP3 PUSH2 0x160 JUMP JUMPDEST PUSH1 0x40 DUP3 ADD SWAP1 POP SWAP2 SWAP1 POP JUMP JUMPDEST PUSH0 PUSH1 0x20 DUP3 ADD SWAP1 POP DUP2 DUP2 SUB PUSH0 DUP4 ADD MSTORE PUSH2 0x1E7 DUP2 PUSH2 0x1AE JUMP JUMPDEST SWAP1 POP SWAP2 SWAP1 POP JUMP INVALID LOG2 PUSH5 0x6970667358 0x22 SLT KECCAK256 0xEA 0x21 LOG3 0xD5 LT SWAP7 PUSH23 0x17E632A8B21276CDB08A057E5AE416F851D7B12D460612 PUSH6 0x3D64736F6C63 NUMBER STOP ADDMOD BYTE STOP CALLER "
				},
				"gasEstimates": {
					"creation": {
						"codeDepositCost": "109600",
						"executionCost": "157",
						"totalCost": "109757"
					},
					"external": {
						"setValue(uint256)": "22545",
						"value()": "2402"
					}
				},
				"methodIdentifiers": {
					"setValue(uint256)": "55241077",
					"value()": "3fa4f245"
				}
			},
			"storageLayout": {
				"storage": [
					{
						"astId": 19,
						"contract": "test/ValueContract.sol:ValueContract",
						"label": "value",
						"offset": 0,
						"slot": "0",
						"type": "t_uint256"
					}
				],
				"types": {
					"t_uint256": {
						"encoding": "inplace",
						"label": "uint256",
						"numberOfBytes": "32"
					}
				}
			},
			"userdoc": {
				"kind": "user",
				"methods": {},
				"version": 1
			}
		}
	}
}